:10000000E9C100000C94C61702C2000000C2000043
:10001000FEC10000FCC10000FAC10000F8C10000F0
:10002000F6C10000F4C100000C94A01C0C946C1DDF
:100030000C947816ECC10000EAC10000E8C1000091
:10004000E6C10000E4C10000E2C10000E0C1000020
:10005000DEC100000C94EF16DAC10000D8C1000028
:10006000D6C10000D4C10000D2C10000D0C1000040
:10007000CEC10000CCC10000CAC10000C8C1000050
:10008000C6C10000C4C10000C2C10000C0C1000060
:10009000BEC10000BCC10000BAC10000B8C1000070
:1000A000B6C10000B4C10000B2C1000029001E00AA
:1000B0001F002000210022002F002B0014001A0036
:1000C0000800150017002D00350004001600070079
:1000D00009000A004C00E1001D001B000600190089
:1000E00005004A00E000E300E200E307407E2C0048
:1000F0002A004600270026002500240023003000A7
:100100003100130012000C0018001C002E003400F7
:1001100033000F000E000D000B002A00E500380030
:1001200037003600100011004D004F005200510002
:100130005000417E2C00280044003A003B003C0067
:100140003D003E002F022B001E021F022002210252
:1001500022022D0235021E001F0020002100220075
:100160004C00E100230024002500260027004A005F
:10017000E000E300E200E307407E2C002A00450097
:1001800043004200410040003F003002310227029C
:1001900026022502240223022E02340233020F001B
:1001A0000E000D000B002A00E5003802370236026F
:1001B000100011004D004D004B004E004A00417EE2
:1001C0002C00280044003A003B003C003D003E006B
:1001D0002F022B001E021F022002210222022D02EA
:1001E00035021E001F002000210022004C00E1000B
:1001F000230024002500260027004A00E000E30039
:10020000E200E307407E2C002A0045004300420044
:10021000410040003F003002310227022602250241
:10022000240223022E02340233020F000E000D00BE
:100230000B002A00E50038023702360210001100D8
:100240004D004D004B004E004A00417E2C0028001E
:100250000100010001000100010001000100010096
:10026000007C2078217824782378010001000100A7
:10027000027806780478037801000100010001008B
:100280000100010001000100010001000100010066
:100290000100010001000100010001000100010056
:1002A00001000100010001002778287825782678D0
:1002B0000100010001000100010001000100010036
:1002C0000100010001000100010001000100010026
:1002D00001000100010001000100010020034500B0
:1002E000720067006F004400610073006800200026
:1002F00072006500760031002E00320000000C0311
:100300004F006D006B0062006400000004030904EC
:1003100009023B00020100A0FA09040000010301E8
:100320000100092111010001224400070581030891
:10033000000109040100010300000009211101006E
:100340000122320007058203200001120100020091
:10035000000008EDFE6060000101020001050109D6
:1003600080A101850319012AB700150126B7009560
:100370000175108100C0050C0901A1018504190156
:100380002AA002150126A002950175108100C00562
:10039000010906A101050719E029E71500250195C6
:1003A0000875018102950175088101050719002969
:1003B000FF150026FF009506750881000508190144
:1003C0002905150025019505750191029501750313
:1003D0009101C00011241FBECFEFDAE0DEBFCDBF18
:1003E00011E0A0E0B1E0E2ECFFE302C005900D9265
:1003F000A43AB107D9F722E0A4EAB1E001C01D9206
:10040000A43AB207E1F70E943C130C94AC1FF8CD5C
:100410009C01FB0121348EE73807A9F022348EE7D6
:100420003807C1F020343E47F1F48581811541F051
:1004300081E032D543E062E081E06DD680E008954E
:1004400081E038D5F7CF8581811511F082E0F1CFB9
:1004500082E0F7CF8581811519F083E01DD5EECFBD
:1004600083E028D5EBCF81E008958430B8F46A307A
:10047000A8F4473098F4E42FF0E097E0699FE00D8E
:10048000F11D112496E4899FE00DF11D1124EE0F5A
:10049000FF1FE455FF4F85919491089581E090E00E
:1004A0000895E3CF089581E0089581E00895FBCF9A
:1004B000089581E0089581E00895AACF08950895F0
:1004C0000895FDCF089508950895A6E0B0E0EBE605
:1004D000F2E00C94331F49835A839E833091AB0121
:1004E00089819A81311117C03E81311589F021151A
:1004F00079F089D5182F682F89819A8163D5698110
:100500007A81812F0E94150E2696E3E00C944F1FEE
:100510006AD5182FF4CF77D569817A81F3CFFC01A2
:10052000262F408151816281738184819581CDCF55
:10053000CF93DF93D82FC92F61E0F1DF6D2F7C2F90
:10054000B4DF811539F061E08D2F9C2FE8DF6D2F2E
:100550007C2FADDFDF91CF9108950F931F93CF9341
:10056000DF93D82FC92F60E0DADF8C016D2F7C2F4D
:10057000A7DF6D2F7C2FC801A4DFDF91CF911F91E2
:100580000F91089521E030E0A90102C0440F551FEA
:100590008A95E2F7CA014FC4CF93C82F81E090E05B
:1005A0000C2E02C0880F991F0A94E2F70E94310CAA
:1005B0008C2FE8DFCF91089581E0089581E00895C0
:1005C000FBCF0895CF93C82FE5D38C2FF7DF8C2F67
:1005D000F7DF2FEF84E39CE0215080409040E1F76B
:1005E00000C00000CF91089581E0ECDF0C94131758
:1005F00080E0E8DF0C9424170F931F93CF93DF93D1
:100600008C0161E08CDFEC01B80155DF811509F444
:100610003FC0B801CE0151DF8115D1F1B801CE0143
:100620000E94C6148115A1F1B801CE010E948E135B
:10063000811571F1B801CE010E946613811541F157
:10064000B801CE010E94570F811511F1F801858183
:10065000811581F0CA35FCE7DF0721F170F4C13064
:10066000ECE7DE07E9F0C330FCE7DF07B9F0C115BE
:10067000DC4769F0C8011DDF0CC0CB35ECE7DE07B5
:10068000A1F0CC35DC47B1F70E94F50BF3CFACDF1E
:1006900080E0DF91CF911F910F9108950E94290C66
:1006A000A7DFF6CF0E94FC0BE5CF0E94FE0BE2CF46
:1006B0000ADF0E94421617C018D006DF0C944616B7
:1006C00081E008950895CF93DF93D82FF9DFC82FE5
:1006D000811511F08D2FF6DF8C2FDF91CF910895CA
:1006E0000895F1CF089580E0FCCF0E940C15F9CF5A
:1006F000CF930E940C15C82F8091A6018C1771F022
:10070000C093A6010E94E3166093A7017093A8010D
:100710008093A9019093AA018C2FE3DFCF910895D4
:10072000ADE0B0E0E6E9F3E00C94341F4887598768
:100730006A877B878C879D879111A9D71F8286E066
:10074000FE013896DE01119601900D928A95E1F72F
:100750008D8181110CC029813A814B815C816D8131
:100760007E818F81E4D62D96E2E00C94501FCE015D
:100770000196DEDE8111EFCFF6CFFC01848181305E
:1007800019F48081918170C40895CF93C82F811589
:10079000B9F08238B9F40E94211581FD11C089E3B6
:1007A0000E94D015DED72FEF37EE83E02150304086
:1007B0008040E1F700C0000089E30E94D615D1D740
:1007C000CF910895833899F40E94211580FDF8CFC8
:1007D00083E50E94D015C5D79FEF21EE34E09150FC
:1007E00020403040E1F700C0000083E5E6CF8438C8
:1007F00099F40E94211582FDE3CF87E40E94D01571
:10080000B0D78FEF91EE24E0815090402040E1F787
:1008100000C0000087E4D1CF8CEF8C0F813A68F4E0
:100820008C2F0E949415811521F08C2F0E94D615D3
:1008300098D78C2F0E94D015C2CF80E28C0F8830C1
:1008400040F4C77081E001C0880FCA95EAF700D76D
:10085000B6CF8BE58C0F833038F42C2F2452330B1A
:10086000C9010E943015ACCFC85ACB3108F0A8CFCF
:10087000EC2FF0E0EE0FFF1FE75DFE4F80819181CE
:100880000E9458159DCF811509F446C0823861F445
:100890000E94211581FF40C089E30E94D01561D7D5
:1008A00089E30E94D6155DC7833851F40E94211553
:1008B00080FF32C083E50E94D01553D783E5F1CF86
:1008C000843851F40E94211582FF26C087E40E94DB
:1008D000D01547D787E4E5CF9CEF980F913A08F3FE
:1008E00090E2980F983048F4877091E001C0990F1A
:1008F0008A95EAF7892FB2D6D6CF9BE5980F933029
:1009000020F480E090E00C943015885A8B3120F46C
:1009100080E090E00C94581508950F931F93CF93A7
:10092000C82F8B0132DF0115110531F48C2FABDF9D
:10093000CF911F910F9108958FE99FE00197F1F7F3
:1009400000C0000001501109EECF60E570E089336E
:1009500011F060E070E0E1CF811511F079D601C7A8
:100960000895811511F07AD6FCC60895A0E0B0E094
:10097000ECEBF4E00C942E1F6C01D62FC72FFC017A
:100980000581F680F2948FE0F82257D6E82E811583
:10099000E9F0E02E0115D1F08C2F807F803461F0DA
:1009A00080E28D0F883088F18C2F807E803221F498
:1009B000D23058F1F11449F18091780282FF25C0BC
:1009C00082E0ECD63AD691E0E82EE9268C2F82958B
:1009D0008F70883009F4CAC060F58430C0F41C2FD1
:1009E0001F708230B0F1C07FC03211F01295107FBD
:1009F000D11509F456C0D13009F47DC0011509F4B0
:100A000088C0F11409F465C035C0E12CDFCF843013
:100A100009F48FC0E11409F4DAC00BD680FDD7C009
:100A2000F601158200D638D2C60189D1FCD542D252
:100A3000CEC0893009F40DC18A5F8F70823050F7C3
:100A4000D23F09F013C18C2F8F7101110DC124D237
:100A5000BBC0C03110F01295107F011581F0111547
:100A600049F080E28D0F883010F0D11105C0812F40
:100A7000EFD577D68D2F21C0812FFBD5FACF8D2FC3
:100A800002DF111509F4C6CF80E28D0F883010F017
:100A9000D11103C0812FE2D502C0812FF0D561D6DC
:100AA000B9CF8091780282FD10C0011541F0111577
:100AB00019F0812FCDD555D680E067DEABCF80E031
:100AC000E2DE111509F4A6CFE5CF011559F0F110BA
:100AD00003C0812F41DF9ECFF1E0FF129BCF812F1A
:100AE000EBD598CFF11096CF812F3BDF812FEFD53B
:100AF000812FD3D58FCF011529F026E0F21608F00B
:100B000089CFE7CF85E0F81608F084CF812F29DF61
:100B100081CFF114D9F3D93349F49FEFE7EEF3E035
:100B20009150E040F040E1F700C000008D2FABDEB7
:100B300071CF8C2F869586958370811569F08130F1
:100B400009F068CF8D2F9C2F9370011102C080E0B7
:100B500090E00E9458155ECF8D2F9C2F937001114D
:100B600002C080E090E00E94301554CF8C2F83703B
:100B7000811138C0011128C04D2F4295469547700C
:100B8000440F440F2D2F2F7030E0042E02C0220F8F
:100B9000331F0A94E2F780E090E0D4FF09C08FE0B1
:100BA00090E002C0880F991F4A95E2F780959095D2
:100BB000C695C695C370822B932BC23079F0C33093
:100BC00079F0C13049F040D10E940C158ADDCDB7D3
:100BD000DEB7E8E00C944A1F30D1F6CF3CD1F4CF19
:100BE0002AD1F2CF011559F1C0FFEECF4D2F42951A
:100BF00046954770440F440F2D2F2F7030E0042E80
:100C000002C0220F331F0A94E2F780E090E0D4FF85
:100C100009C08FE090E002C0880F991F4A95E2F763
:100C200080959095C695C695C370822B932BC23044
:100C300061F0C33061F0C13031F061D1C5CF823095
:100C400008F4C2CFD3CF54D1BFCF60D1BDCF10D124
:100C5000BBCFCF70011529F08C2F1ED18D2F7CDEDC
:100C6000B3CF8D2F7EDE8C2F25D1AECF60F4D03F59
:100C7000B9F0D13F81F0011509F43AC0F114A9F19E
:100C80008D2F83DDA1CFD33FC1F0D43FA1F7809159
:100C9000780282FD1AC08C2F8F71011529F3D7CEEF
:100CA000011541F025E0F21608F08ECF8C2F8F71E0
:100CB00011D18ACF86E0F816F7CF011521F08C2FDD
:100CC0008F71E0D081CFDBD07FCF011529F063E0B9
:100CD0008C2F8F714BD578CF81E060D592E0F916DB
:100CE00008F472CF82E05AD56FCF8C2F8F71AFCEC0
:100CF000F11471F0D93349F4EFEFF7EE23E0E1504E
:100D0000F0402040E1F700C000008D2FBCDD5CCF3B
:100D10008C2F8F71A9CF0F931F93CF93DF93EC018B
:100D2000688179818D81ABD18C01F7D083D0B801F6
:100D3000CE011CDEDF91CF911F910F910895CF93CB
:100D4000DF93EC018C81811581F0CE0155DC81119E
:100D50000FC073D4811549F08D81811531F08091D8
:100D6000780282FF02C082E019D5DF91CF91089509
:100D7000CE01D1DFCE01F1DBF8CF80E090E00E9420
:100D8000301580E090E00E94581581D4EAC40E949A
:100D9000DC15F3CF6BD4FBCF282F92959F70963044
:100DA00099F060F4925F9F70923030F4203FB1F080
:100DB00038F481E0283E38F080E008959A5FF3CF60
:100DC00081E0243FC9F7089591E0813F09F090E068
:100DD00081E0283E08F080E0892B089581E00895A5
:100DE000FC018481811521F0808191813DD1D4CF96
:100DF00080E00895A6E0B0E0E0E0F7E00C94341F56
:100E00002696E2E00C94501FA7E0B0E0EAE0F7E09D
:100E10000C94341F2796E2E00C94501F0895FECFE7
:100E20000895FDCF0895FADFFCDF9093D3018093FE
:100E3000D20108950895F7CF08952091D2013091FD
:100E4000D301822B932BEFCF2091D2013091D3018C
:100E500082239323E8CF2091D2013091D3018227BE
:100E60009327E1CFDBCF0895FDCF0895D7CF089525
:100E7000FDDFFADF9093D1018093D001089580E0E7
:100E800090E0F6CF21E030E0A90102C0440F551FE9
:100E90008A95E2F7CA01ECCF21E030E002C0220FD0
:100EA000331F8A95E2F78091D0019091D101822B76
:100EB000932BDECF21E030E002C0220F331F8A9552
:100EC000E2F7209530958091D0019091D101822355
:100ED0009323CECF21E030E002C0220F331F8A954A
:100EE000E2F78091D0019091D10182279327C0CF62
:100EF0002091D0013091D101822B932BB9CF209139
:100F0000D0013091D10182239323B2CF2091D0011F
:100F10003091D10182279327ABCF08959B01677051
:100F200091E001C0990F6A95EAF763E0369527953D
:100F30006A95E1F7220F331F220F331FFA01E20FE8
:100F4000F31F40E050E0682F70E08191DF019B01CA
:100F5000042E02C0369527950A94E2F72170219558
:100F60002827292328272E934F5F5F4F44305105B0
:100F700061F708959C01982F977083E03695279527
:100F80008A95E1F7220F331F220F331FFB01E20F77
:100F9000F31F40E050E080E0219130E0092E02C0D4
:100FA000369527950A94E2F721703327042E01C065
:100FB000220F0A94EAF7822B4F5F5F4F44305105AE
:100FC00059F70895282F862F9A3060F4273050F46F
:100FD000622F70E027E0929F600D711D11244CEA92
:100FE00051E09CCF0895292F9A3058F4873048F467
:100FF00090E06CEA71E037E0239F800D911D112491
:10100000B9CF80E00895A0E0B0E0E9E0F8E00C940A
:101010002D1F8C01E090D001F090D1018091D20180
:101020009091D301E82AF92ACFE0D0E0CC24C394F0
:10103000D12CC6010C2E02C0880F991F0A94E2F72A
:101040008E219F21892B49F4219798F7B12C8B2D64
:10105000CDB7DEB7E9E00C94491FBC2EB8018C2F48
:10106000EFD5019789F3F3CFCF93DF93D82FC92F13
:10107000CADF6D2F7C2FE4D5DF91CF9108951F93A8
:10108000CF93DF93162FD72F9091AB01911539F0A5
:10109000862F972FE9DFDF91CF911F91089581155A
:1010A00069F0862F972FAFDFC82F682F812F9D2FD4
:1010B00089DF612F7D2F8C2FC3D5EDCF862F972F02
:1010C00092DFC82FF6CFDC01E1E0F0E0CF0102C0F3
:1010D000880F991F6A95E2F7BC01CF0102C0880F03
:1010E000991F4A95E2F7AC01682B752B02C0EE0FF1
:1010F000FF1F2A95E2F7CB018A239B2386179707C8
:1011000021F4CF018A2B9B2B0895E095F095CF0118
:101110008A239B230895242F462F682F8091D00186
:101120009091D101D0DFA4CE0F931F93CF93E09184
:10113000D401C7E08091D5018E1304C0CF911F91D7
:101140000F9108950E2F10E0CE9FF0011124EA5266
:10115000FE4F208131814281538164817581868176
:1011600053DEF8013196E770E5CF20910E02309101
:101170000F02409110025091110260911202709181
:1011800013028091140240CE80911402803178F4D1
:1011900080911302811559F0E091D4012091D5017D
:1011A00030910F0240910E0257E02E1301C00895B6
:1011B0006E2F70E05E9FF0011124DF01AA52BE4F36
:1011C00014968C911497811549F111968C91119771
:1011D000831324C08C91841321C015968C9115978C
:1011E00081111CC012968D919C91A0911002B0911A
:1011F00011028A1B9B0B8837910580F480911402A1
:101200008F70806180931402E452FE4F80818F7052
:10121000806180838EE092E092DD86CFFB01319683
:10122000E770C3CFE091D4019091D50127E0E91395
:1012300002C080E00895AE2FB0E02E9FF00111248F
:10124000EA52FE4F3181361306C03081381303C095
:101250003581341304C0FD013196E770E8CF81E099
:1012600008958F929F92AF92BF92DF92EF92FF927A
:101270000F931F93CF93DF93CDB7DEB72D970FB6A4
:10128000F894DEBF0FBECDBF8C0186E0F801DE0111
:10129000189601900D928A95E1F7F801F580848106
:1012A0009EE0892E92E0992E90911202911117C022
:1012B000811509F4EFC0F11409F42EC1C80190DDC5
:1012C000811509F429C187E0F801D40101900D923C
:1012D0008A95E1F7C40151DA57DF47DFDBC0E080D0
:1012E000A280B380D090130220911002309111029D
:1012F000A501421B530BD11409F4CFC04837510547
:1013000008F09EC0811509F4C5C090910F0291802C
:1013100080911402803108F065C0991226C0909126
:101320000E029E1122C0F11057C08F708061809311
:1013300014021BDF8EE092E002DD80911402F801BE
:101340008683F12C8F2D2D960FB6F894DEBF0FBE3D
:10135000CDBFDF91CF911F910F91FF90EF90DF9064
:10136000BF90AF909F908F900895F11035C040E0EE
:10137000692D8E2D57DF40E0692D8E2D53DFF82E1D
:101380008111DFCF888599856FDE292F22952F70F7
:10139000903450F49F70223078F0911591F0F8015C
:1013A0009681903170F4CECF2A5F2F70223070F08A
:1013B000C801C5DCFD2CC6CF911519F0811509F4C3
:1013C000C1CF805E883008F4BDCFF2CF803F08F4F3
:1013D000B9CF815F8330F7CF809114028160809311
:1013E0001402AFCF991207C090910E029E1103C054
:1013F000F11409F473C0C801F3DC811509F48CC041
:10140000F11409F489C080911402803280F0209197
:101410000E0230910F023A832983BC82AB829091F5
:1014200012029D831E828F83CE01019688DC87E0A5
:10143000F801AEE0B2E001900D928A95E1F74CCF51
:1014400090911402903188F4488559856A857B858E
:101450008C859D85CFDC8EE092E071DC87E0F40125
:1014600011928A95E9F781DE6CCF811599F0209170
:101470000F0281812813BFCF80910E028E11BBCF46
:10148000F110B9CF9683C8015ADC87E0F4011192BC
:101490008A95E9F7FF24F39455CF4837510508F0B2
:1014A0003EC08115B9F3F114B9F190910F02818119
:1014B000981329C080910E028E1125C080911402CC
:1014C00080FD18C08031B0F08683807F803F39F086
:1014D0008681982F907F905F8F70892B8683C801BB
:1014E0002EDC87E0F801AEE0B2E001900D928A9523
:1014F000E1F7F3CE87E0F801AEE0B2E001900D92A3
:101500008A95E1F7C7CFC8016BDC811190CF80913C
:101510001402816080931402C80111DCBBCF48859E
:1015200059856A857B858C859D8564DC97CFAEE087
:10153000B0E0EDE9FAE00C94331F288739874A8739
:101540005B876C877D878E87CE0108968ADE6C85E7
:101550008115A1F0611539F0288539854A855B85AB
:101560007D858E8551DC17E08091D4019091D50165
:10157000891338C02E96E3E00C944F1F87E0FE01DC
:101580003896DE01119601900D928A95E1F761156A
:1015900051F3A091D5018A2F90E001968770992789
:1015A0002091D4012817190681F097E09A9FD00165
:1015B0001124AA52BE4FFE01319601900D929A95C8
:1015C000E1F78093D501B0DDCECFE4DB1092D501F9
:1015D0001092D40187E0EEE0F2E0DF011D928A95DF
:1015E000E9F7C1CF189FC00111248A529E4F39DEFE
:1015F000811509F4BFCFE091D4011E9FF0011124A1
:10160000EA52FE4F2081318142815381648175818C
:101610008681FADB8091D40190E00196877099274A
:101620008093D401A1CF80911D02869586958695E1
:10163000089580911D028770089590911D02977002
:1016400081E0911101C080E0089580912902089500
:1016500090912902982B909329020895982F9095A4
:1016600080912902892380932902089510922902EA
:10167000089590912802982B909328020895982F0E
:1016800090958091280289238093280208951092D2
:10169000280208950895FECF089590911E02292FE3
:1016A0002823211529F08095892380931E02F3CFEA
:1016B00008950895FECF089590911F02292F2823A1
:1016C000281721F0982B90931F02F4CF0895909142
:1016D0001F02292F2823211529F080958923809323
:1016E0001F02E8CF089580911F02811521F010920A
:1016F0001F0280E0DFCF08950F931F93CF93DF93F6
:101700000091000110910101C091290280912802ED
:10171000C82B80911F02811529F0C82B0E948015CB
:101720008111E1DFF801C083C0910001D091010176
:1017300048E050E065E172E0CE010E945B1F892B1A
:1017400059F088E0FE01A5E1B2E001900D928A9582
:10175000E1F7CE010E942315DF91CF911F910F91E8
:101760000895CACF08950895FECF0895962F209129
:10177000780222FF0EC0682F660F660F660F692B76
:1017800060931D0289DB80911D0286958695869562
:10179000EBCF82CB10921D0280E0E6CF90911D022C
:1017A0008095892380931D02282F277021110BC05B
:1017B000891749F09091780292FF05C08695869529
:1017C000869578DBE7CF08959091780292FB2227E7
:1017D00020F9281749F080FB92F99093780287E767
:1017E00092E043D082E0DACF08958091780200241D
:1017F00082FF0394802DE8CF81E0E6CF80E0E4CF44
:1018000060E070E0CB01B2C360E070E0CB01A8D330
:10181000F7CFA3E0B0E0EFE0FCE00C94341F59D325
:1018200064D31B82CE01039677D381E090E090933E
:10183000D3018093D2017CD3198284E18A83CE01C3
:10184000019687D3E1DF2396E2E00C94501FE1CFAD
:10185000089551C308953EC3089553C3089562C3C4
:10186000089566C3089569C3089573C3089584C332
:101870000895A6E0B0E0EFE3FCE00C94321F0E9474
:10188000D7168C0180912A0290912B028017910724
:1018900079F019821A820E94D716BC0149815A81B7
:1018A00080E090E00E94900310932B0200932A02A4
:1018B0002696E4E00C944E1FD9D260933A027093BE
:1018C0003B0280933C0290933D02609336027093FA
:1018D000370280933802909339020895089508954D
:1018E000FDCF08950895FEDFFBCF0895FECF089544
:1018F0000895FEDFFBCF81E0089585E59FE0C7D620
:10190000EEDFF1CFDEC40895089508950895FCDF59
:10191000FCDFFCCFA0DF811101C099DF8EE392E0F4
:101920009CDF87E792E09FDF9ADF85DA8091D00124
:101930009091D10199CA0E94CE1674D2C9D418D4FC
:10194000E9DF0E947003A8D6D0D4D3CFA6E0B0E0E0
:10195000ECEAFCE00C942B1FCEDF811108C089DF7C
:10196000B0D40E9478032696EBE00C94471F20D455
:101970008CE2A82E82E0B82E750110E0F7010191EB
:101980007F01812F04D31F5F1A3009F43EC008176E
:10199000A9F380913E0281FD00D3B4DFC82E00E0A0
:1019A00099249394802FF3D2182FF50191915F0120
:1019B000891731F1D82ED926F12CEE24E3948E2DFF
:1019C0008D218115B1F0C114A1F0F9820A830E9422
:1019D000D7169C838B839D8291E08E2D812381116C
:1019E00001C090E049815A816B817C818D810E9488
:1019F0009003F394EE0CF7E0FF12E1CFF5011293A0
:101A00000F5F0A3079F658DFABCF0813C2CFA7CFEC
:101A10001F93CF93DF9316D1EC01811522E5920736
:101A200008F05AC0811540E5940708F0D7C0803E01
:101A3000910528F58D3C910508F0A9C0883A9105DB
:101A400078F4853A910508F09FC08130910509F43A
:101A50003EC00497813A9105D0F1C0E0D0E037C094
:101A6000885A91094B97C8F7C85AD0E0CC0FDD1FB0
:101A7000C15ADE4F0990D881C02DD46428C0811589
:101A800050E49507E8F4C11580E2D80708F0BCC01F
:101A9000C83ED105E0F0CE019A9581159F41E8F648
:101AA0008D2F71D1182FCE019927CCD0212F30E066
:101AB000322F2227E901CC27DF71C82BD92B07C091
:101AC0009927C0D0CC27DF70C82BD92BD06ACE0184
:101AD000DF91CF911F910895803842E59407C8F5B2
:101AE000803652E5950708F05BC0C03482E5D80720
:101AF000D0F4C03292E5D90708F04BC08C2F869500
:101B0000869520E2829FC0011124C37021E030E05D
:101B1000A90102C0440F551FCA95E2F7EA01C82B7C
:101B2000D92BDD68D4CF8C2F86958695877050E2AF
:101B3000859FC0011124C37021E030E0A90102C0DB
:101B4000440F551FCA95E2F7EA01C82BD92BDC6870
:101B5000BECF803C52E5950758F48F71C03AD2450C
:101B6000A0F590E0982F8827EC01C46FD06AAFCF22
:101B7000805C9245809708F070CFDC2FCC27CC2773
:101B8000DF71C06FD06AA3CFA497D064A0CFD06517
:101B90009ECFCF71D0E0DC2FCC27C16FD06A97CF1A
:101BA00086958695877020E2829FC0011124C370BC
:101BB00021E030E0A90102C0440F551FCA95E2F7A9
:101BC000EA01C82BD92BDA6882CFDDD0C82FD0E04C
:101BD000DC2FCC27CC27DF71D06279CF8F71D3D0A7
:101BE00053E0CC0FDD1F5A95E1F7CC27DF70282F8B
:101BF00030E084FF05C050E1859F90011124332718
:101C0000C22BD32BD06963CF8D2F8F71BCD0182FEF
:101C1000CE01992717D0212F30E0322F22272227FB
:101C20003F71282B392BE901D7CF462F672F7A3008
:101C300020F4473010F40C94510280E090E00895B5
:101C4000F4DFE6CE9C01803E910509F448C0D8F44B
:101C50008133910509F47DC048F48932910509F476
:101C60006DC08A9709F47CC0C90108958933910534
:101C700051F18238910539F1C597B1F7809177021A
:101C800085FFF2CF29C0843E910509F447C048F48E
:101C9000823E910599F1833E9105A9F121EE30E054
:101CA000E3CF863E910509F444C0873E9105E1F6F5
:101CB0008091770283FD61C09091780291FF2BC0E3
:101CC00024EE30E0D1CF809177028370811152C031
:101CD0008091780283FFC8CF29E230E0C5CF8091A0
:101CE000770280FD33C09091780290FFBDCF23EE44
:101CF00030E084FFB9CF20E030E0B6CF80917702AA
:101D000082FDF5CFB1CF8091770282FD30C09091F6
:101D1000780290FD2FC084FFA7CFEDCF809178028D
:101D200081FFA2CF8091770227EE30E084FDE3CFE0
:101D30009BCF8091770283FDF7CF96CF809177027A
:101D400085FD1EC08091780283FF8ECF29E330E0AD
:101D50008BCF8091770286FF87CF2AE230E084CF55
:101D60008091770286FF80CF21E330E07DCF22EEA5
:101D700030E07ACF20EE30E077CF26EE30E074CF3F
:101D800025E330E071CF9091770292FF10C041E0DF
:101D9000282F2471243009F040E031E0282F2871E9
:101DA000283009F030E0431711F02CE0822793FF30
:101DB00010C041E0282F2471243109F040E031E0C7
:101DC000282F2871283109F030E0431711F02CE05A
:101DD00082273091780230FF10C051E0282F217106
:101DE000213009F050E041E0282F2871283009F017
:101DF00040E0541711F029E0822731FF10C041E084
:101E0000282F2171213109F040E031E0282F28717D
:101E1000283109F030E0431711F029E0822794FDC2
:101E2000877E08951092790210927A0210927B02B6
:101E300010927C020895CF92DF92EF92FF926B0195
:101E40007C013FD281110DC0BED7C61AD70AE80A5D
:101E5000F90AC0927902D0927A02E0927B02F09263
:101E60007C02FF90EF90DF90CF900895CF92DF92A9
:101E7000EF92FF9226D2811551F0A5D76B017C011C
:101E8000C701B601FF90EF90DF90CF9008959BD7E8
:101E9000C0907902D0907A02E0907B02F0907C02B0
:101EA000C60ED71EE81EF91EEBCF80E00895CF9333
:101EB0009C01FB01805E9245C1E0809738F4C581AA
:101EC000C11104C0822F8F710E94CC028C2FCF9140
:101ED0000895089580E090E00E94791F9C0181E0C0
:101EE000233E3E4F09F080E0089563EE7EEF80E0F0
:101EF00090E00C94981F6FEF7FEF80E090E00C94DF
:101F0000981FCF93DF93EC0182E090E00E94711F55
:101F10008883DF91CF910895FC01608182E090E099
:101F20000C947E1F83E090E00E94711F90E0089562
:101F3000682F83E090E00C947E1FCF93DF93EC0139
:101F400084E090E00E94791F99838883DF91CF918C
:101F50000895FC016081718184E090E00C94981FE9
:101F6000AB01BC018FE090E00C94901FAB01BC0171
:101F700083E190E00C94901F682F8EE090E00C9429
:101F80007E1F0895FECF08950895FECF0895E82F8F
:101F9000F0E0E857FD4F80810895089580EA8A9522
:101FA000F1F7089500C00895F9CF08950895FECF80
:101FB0000895A5E0B0E0EFEDFFE00C942E1F81D175
:101FC000F82E8091920290E088579D4FF114D9F13C
:101FD00025E0E22E8E010F5F1F4FF8012E2D11928A
:101FE0002A95E9F7B8018DD168018115B1F080918A
:101FF0007D0290E045E050E0B80188579D4F0E9477
:102000005B1F21E020933F02892B89F4F12CBDDF77
:102010008F2D2596E8E00C944A1F80913F02811590
:10202000A9F3F8011192EA94E9F710923F02A09106
:102030007D02B0E0A857BD4F85E0F60101900D92FA
:102040008A95E1F7E4CF20917D0230E0BC01C9011F
:1020500088579D4FDAD1ABDFDBCFF894E82FE295BC
:10206000EF70F0E041A18F7021E030E0B90102C0D3
:10207000660F771F8A95E2F7CB01962F90959423F0
:1020800091A392A1892B82A378940895CF93DF9393
:10209000CCE9D1E089918F3F09F0DFDF81E0C13ADF
:1020A000D807C1F7C5E9D1E089918F3F09F0D5DFA5
:1020B00081E0CC39D807C1F7DF91CF910895A0E036
:1020C000B0E0E5E6F0E10C942E1FEC01D62E062FD1
:1020D00010E0C80184569E4F7C01FC0180818F3F37
:1020E00009F441C0F894E82FE295EF70F0E091A177
:1020F0008F7021E030E001C0220F8A95EAF7892F26
:10210000822B81A382A12095282322A378944ADFE1
:10211000A5E9B1E091E0C12C8D918F3F79F0E82FD6
:10212000E295EF70E05EF0E0208130E08F7002C059
:10213000359527958A95E2F7892F20FD80E0C82AFA
:10214000990FF1E0AC39BF0739F7F70180818F3F74
:1021500009F083DF61E0C11001C060E08D2D24DF54
:10216000C00FD11FC882CDB7DEB7E8E00C944A1F7C
:10217000809102018091020190E0811101C095E0FF
:102180009093920285E0891B80937D027FDF8AE035
:10219000E8E8F2E0DF01982F1D929A95E9F7EEE763
:1021A000F2E0DF011D928A95E9F785E03ED0EACEA4
:1021B000AAE0B0E0EEEDF0E10C94311FFE013196A3
:1021C0008AE0DF011D928A95E9F710E0FE2E0F2FBD
:1021D000612F8F2D902F73DF1F5F1530C9F74AE0F5
:1021E00050E06F2D702F8EE792E00E945B1F21E080
:1021F000892B89F420E06091920270E068577D4F4E
:1022000045E08EE792E012D0182FD3DE812B2A967C
:10221000E5E00C944D1F8AE0EF2DF02FAEE7B2E021
:1022200001900D928A95E1F7E6CF0895A0E0B0E025
:10223000ECE1F1E10C942E1FD82EE92EF62ED72FCB
:10224000042FC22F211571F081E080934202AFD597
:10225000909341028093400280E0CDB7DEB7E8E082
:102260000C944A1FC0904202C114B1F38091400205
:10227000909141021DD5059778F310E0A8016D2DCE
:102280007E2D8F2D9D2F0E945B1F892B41F0A80171
:102290006D2D7E2D8F2D9D2F0E94681FCC2D1092AD
:1022A00042028C2FDACFCF930E94111FC82F8111C9
:1022B00002C00E940D1F8C2FCF910895809146027D
:1022C0000895809145020895FCDF91E089270895E3
:1022D000EADF80934502F8DF80934602EFDF8093C8
:1022E0000201EFDF811140C00895EBDF811101C0D1
:1022F0003DC0089581E0909147029A3008F080E057
:1023000008950F931F93CF93DF93EC01162F072FA0
:10231000809147028A3080F4612F702FCE0173D0F4
:1023200081111FC0809147028F3FA1F440D5909347
:1023300044028093430208C080914302909144027A
:10234000B7D4843F914040F780E0DF91CF911F9157
:102350000F9108958F5F809347028A3038F781E0AC
:10236000F4CF10924702FBCFCDC50895CEC5089596
:10237000A0E0B0E0EEEBF1E10C942E1FFA01690150
:102380007801C82F880FDD0B3097B9F0DE0193E09C
:10239000AA0FBB1F9A95E1F7AD5FBE4F11968D91C5
:1023A0009C911297885B9D4F2C91422F50E0E21731
:1023B000F10508F4AF010E94681FCE0188D6182FDE
:1023C0008115D9F0E114F104C1F083E0CC0FDD1FD9
:1023D0008A95E1F7FE01ED5FFE4F8381482F50E0C3
:1023E000E816F10408F4A701CD5FDE4F6C817D8112
:1023F000685B7D4FC6010E94681F812FCDB7DEB795
:10240000E8E00C944A1FEBC0089500C10895A4E0D1
:10241000B0E0EDE0F2E10C94321F60915F02709148
:10242000600280916102909162024BD411E06436A7
:1024300071058105910508F119DDDC01CB010296DA
:10244000A11DB11D89839A83AB83BC8300E010E09A
:1024500020E030E044E050E0BE016F5F7F4F82E05B
:1024600087DF182F811549F0AED460935F02709317
:1024700060028093610290936202812F2496E4E0CF
:102480000C944E1FA6E0B0E0E8E4F2E10C942C1F9F
:102490007B01A090A101B090A20101E010E09E019B
:1024A0002A5F3F4F40E050E060E070E080E060DF96
:1024B000182F811509F442C065018FEFC81AD80A98
:1024C00060915B0270915C0280915D0290915E026E
:1024D000F8D3643671058105910548F105E010E0F7
:1024E0009E012F5F3F4F40E050E060E070E081E0F0
:1024F0003FDF182F65E070E0C601CFD09E819813B2
:1025000028C0111531F15FD460935B0270935C02B7
:1025100080935D0290935E0285E0FE013196A6E510
:10252000B2E001900D928A95E1F781E013C065E079
:1025300070E0C601B2D09E818913D0CF85E0F5014D
:102540003196DE01119601900D928A95E1F71111F5
:10255000E3CF80E095E0E6E5F2E0D70101900D924F
:102560009A95E1F72696EAE00C94481FA0E0B0E0C7
:10257000ECEBF2E10C942C1F182F092FB62EA72E8E
:102580007A01B8DE9AE0C92ED12C811103C0CC2487
:10259000C394D12CC1E0D0E06B2D7A2D812F902FE8
:1025A000F7010995811116C02196CC16DD0694F02D
:1025B000CC9FC001CD9F900D900D112420E030E004
:1025C00045E34A95F1F700002F5F3F4F2817390781
:1025D000B9F7E2CFCDB7DEB7EAE00C94481F0F930E
:1025E0001F93CF93DF93D82FC92F8B0142E452E181
:1025F000BDDF811531F047E052E1B8018D2F9C2FEE
:10260000B5DFDF91CF911F910F9108950F931F9325
:10261000CF93DF93FB01C091A101D091A201CE0124
:10262000019625E0DC0101900D922A95E1F765E025
:1026300070E033D088836E817F8188859985009191
:1026400052021091530220915402309155026017AA
:1026500071078207930749F0609352027093530207
:102660008093540290935502E6DBDF91CF911F9146
:102670000F9108956BC9089534D3B7D63ED9CDD6FE
:102680005AD9D4D6D6D6F6DFEAD641D9FBCF909325
:10269000A5018093A40108950895FC01680F791F96
:1026A0008FEF41E3E617F70709F408959191892721
:1026B00028E030E0982F990F87FF06C0892F8427E4
:1026C00021503040B9F7EECF892FFACFCF93DF9367
:1026D000EB0186319C4701F50E94250B9D819115E8
:1026E00091F08A7A91E0811101C090E090936302A9
:1026F000811539F085E354D234D880E0DF91CF9151
:10270000089589E2F8CF80916302811519F085E37D
:102710004DD2F2CF89E2FCCF81E0F0CFCF93DF93AF
:10272000EC01FB018581811509F4CAC09E01305777
:102730002332310508F0AAC087E792E094D8FE0161
:10274000E150F047E232F10520F4E255F04E0C94EE
:102750001E1F8091770281608093770290C08091E4
:1027600078028860809378028AC0809177028260C4
:10277000F3CF809177028460EFCF809177028860F9
:10278000EBCF809178028160EDCF809178028260FA
:10279000E9CF809177028061DFCF809177028062FC
:1027A000DBCF809177028064D7CF0E94CA068091E8
:1027B00077028068D1CF809177028C60CDCF8091F5
:1027C00078028360CFCF809177028E7FC5CF8091D2
:1027D0007802877FC7CF809177028D7FBDCF8091B0
:1027E00077028B7FB9CF80917702877FB5CF8091B9
:1027F00078028E7FB7CF809178028D7FB3CF8091A2
:1028000077028F7EA9CF809177028F7DA5CF8091AF
:1028100077028F7BA1CF0E94CA06809177028F77C3
:102820009BCF80917702837F97CF809178028C7FB6
:1028300099CF80917702992782FF939590FB82F937
:1028400090FB83F989CF80917802982F909590FB27
:1028500080F990FB81F986CF90917702892F8F7B49
:1028600096FF806479CF0E94CA0690917702892FE3
:1028700097FB87F9805870CF81E00E94370C87E77B
:1028800092E00E94350C0E94CA0680E0DF91CF9151
:10289000089580E0F2CF90917702892F8F7E94FF88
:1028A00080615ACF90917702892F8E7F90FF81604F
:1028B00053CF90917802892F877F93FF886052CF02
:1028C00081E0E4CF0F931F93CF93DF93C42FD22FD8
:1028D000FC0185818115C1F04093660268D2909316
:1028E00065028093640280E28C0F883040F4C770E8
:1028F00081E001C0880FCA95EAF70E94AC04DF911D
:10290000CF911F910F91089510916602141332C058
:102910008091640290916502CBD18837910550F582
:10292000C0E2CD0F1D17C1F080E2810F883040F466
:10293000177081E001C0880F1A95EAF70E94B10470
:10294000C83050F491E08D2F877001C0990F8A959F
:10295000EAF7892F0E94AC04802F0E94A504C8309A
:1029600070F6D77081E001C0880FDA95EAF70E940F
:10297000B104C5CF80E28C0F883008F0C0CFC7709B
:1029800081E001C0880FCA95EAF7F1CF0F93DB0110
:10299000FC01E851FC47E730F10590F5E053F04EBB
:1029A0000C941E1F06E221EE41EE6AE17CE7CD01A8
:1029B00089DF80E00F91089507E225EE45EE6BE197
:1029C0007CE7F5CF06E221EE40EE68E17CE7EFCF51
:1029D00007E225EE44EE69E17CE7E9CF06E221EE6D
:1029E00042EE6CE17CE7E3CF07E225EE46EE6DE1D7
:1029F0007CE7DDCF08E221E045EE6EE17CE7D7CF52
:102A000015968C9181111092660281E0D3CF90933C
:102A10006D0280936C02089554DC811103C0809193
:102A200067020895E0916C02F0916D02309739F0E1
:102A30000190F081E02D309711F00995089580E024
:102A40000895EACF0895E0916C02F0916D023097FD
:102A500031F00280F381E02D309709F00995089557
:102A6000A3E0B0E0E6E3F5E10C94341F9C01809113
:102A70006A0290916B0282179307B1F030936B0258
:102A800020936A02E0916C02F0916D02309761F040
:102A90000084F185E02D309739F083E089833B8312
:102AA0002A83CE01019609952396E2E00C94501FEB
:102AB000A3E0B0E0EEE5F5E10C94341F9C018091B9
:102AC00068029091690282179307B1F0309369020E
:102AD00020936802E0916C02F0916D02309761F0F2
:102AE0000084F185E02D309739F084E089833B83C1
:102AF0002A83CE01019609952396E2E00C94501F9B
:102B000040910001509101019A012E5F3F4F485FB3
:102B10005F4F80E0F90190812F5F3F4F91118F5FF0
:102B200042175307B9F70895811571F020910001FC
:102B300030910101F9013296285F3F4F919198172A
:102B400029F0E217F307D1F780E0089581E00895B6
:102B50009C01FC0132968FEF90E04191461751F0B5
:102B60008F3F19F4411101C0892F9F5F9630A9F75B
:102B70008F3F09F40895280F311D87FD3A95F9011B
:102B8000628308959C01FC013296285F3F4F81913A
:102B9000861302C0DF011E92E217F307C1F7089502
:102BA000682F8091000190910101D2CF682F809110
:102BB000000190910101E6CFE0910001F091010147
:102BC000329686E0DF011D928A95E9F7089508950F
:102BD000FECF08958F5F80931E0160911B0170915D
:102BE0001C0180911D0190911E01F2CF83E0809322
:102BF0001E0160911B0170911C0180911D0190913B
:102C00001E01E6CFE7CF089581E080931E01609119
:102C10001B0170911C0180911D0190911E01D8CF64
:102C2000F3CF089591E0811101C090E090931D01D0
:102C300060911B0170911C0180911D0190911E01FA
:102C4000C7CF80911D01089580931C0160911B01E5
:102C500070911C0180911D0190911E01B9CF80914E
:102C60001C01089580931B0160911B0170911C0150
:102C700080911D0190911E01ABCF80911B010895A1
:102C800008950895FECF089508950895F9CF089501
:102C9000CF93FADF8DDAF9DFC0E08C2F78D981117C
:102CA00005C0CF5FCA30C9F7CF91089581E0FCCF4E
:102CB000CF93DF93EC017BD08C1B9D0BDF91CF91E9
:102CC0000895CF92DF92EF92FF926B017C017BD04F
:102CD0006C197D098E099F09FF90EF90DF90CF90CE
:102CE000089585B7806885BF85B7806885BF0895DA
:102CF0001F921FB61F9211248F939F93AF93BF9380
:102D000080916E02811113C0809193029091940280
:102D1000A0919502B09196024196A11DB11D80939C
:102D2000930290939402A0939502B0939602BF9160
:102D3000AF919F918F911F901FBE1F90189580910A
:102D40009B02843031F10E94580310926E0288E198
:102D500090E020E40FB6F894A895809360000FBE31
:102D60002093600083B7817F846083BF83B78160D5
:102D700083BF7894889583B78E7F83BF0FB6F8940E
:102D8000A895809160008861809360001092600037
:102D90000FBE08950E94CA060C945C0382E084BDB5
:102DA00093E095BD9AEF97BD80936E0008952FB77D
:102DB000F8948091930290919402A0919502B09121
:102DC00096022FBF08952FB7F894609193027091E7
:102DD000940280919502909196022FBF0895789465
:102DE0001F921FB61F9211248F939F93AF93BF938F
:102DF0008091930290919402A0919502B0919602D5
:102E00000196A11DB11D8093930290939402A0930B
:102E10009502B0939602BF91AF919F918F911F90B1
:102E20001FBE1F90189587E797E79093010880933E
:102E3000000888E19AE00FB6F894A89580936000A6
:102E40000FBE90936000FFCF88E19AE00FB6F89430
:102E5000A895809360000FBE90936000FFCF8EE135
:102E6000489B02C08A95E1F7489BFECF0895589889
:102E700080E28A95F1F7589A0895FC012BE02A9593
:102E8000F1F728E090E080E031E040E14A95F1F789
:102E9000880F489B02C08160932742E04A95F1F772
:102EA000000040E14A95F1F72A9579F720E12A954B
:102EB000F1F729B132E03A95F1F7000040E14A9587
:102EC000F1F7217092272081920F90830895A1E05D
:102ED000B0E0ECE6F7E1C4C719828C017C01E60E94
:102EE000F11CBDDFCE010196C8DFF80181938F018F
:102EF000EE15FF05B1F781E09981911180E02196EF
:102F0000E6E0CAC7509A589A08955098589AE89A95
:102F1000E9E6F0E080818C7F808308956150770B33
:102F200091E001C0990F6A95EAF7692F90E021E0DE
:102F3000611108C0911599F0589A80E28A95F1F7CD
:102F400058980895362F3823311539F0589A92271A
:102F500030E23A95F1F76695EBCF5898F9CF58984B
:102F6000ECCFFF920F931F93CF93DF93EC018C0173
:102F7000060F111DF9907BDF68E08F2DCFDFC017A2
:102F8000D107C1F7CDB7DEB7E5E087C71F920F9233
:102F90000FB60F9211240F931F932F933F934F93CC
:102FA0005F936F937F938F939F93AF93BF93EF93B1
:102FB000FF93CF93DF930F92CDB7DEB719824FDF28
:102FC000CE0101965ADF082F069506950695982F93
:102FD00092959570202F2570920F292F237096952A
:102FE0009695920F982797708981892B811509F002
:102FF00058C0043008F055C080E18A95F1F7589A1E
:10300000509A82E08A95F1F700C0589888E0089FAE
:1030100080011124D801AD5FBE4F1696ED91FC9151
:1030200017973097A9F06091A1017091A2011496B1
:103030002D913C911597260F371F11968D919C91DC
:103040001297680F791F13964C9113978C910995DD
:10305000F801ED5FFE4F6381611549F02091A101F8
:103060003091A20184819581820F931F7ADFFFDE68
:1030700080E18A95F1F758985098589A80E18A959E
:10308000F1F7F801ED5FFE4F6081611549F0209185
:10309000A1013091A20181819281820F931F17DFDC
:1030A000DEDE0F90DF91CF91FF91EF91BF91AF9155
:1030B0009F918F917F916F915F914F913F912F9150
:1030C0001F910F910F900FBE0F901F9018950F93A7
:1030D0001F93CF93DF938C0104970CF05EC0F8949C
:1030E000509A589885E08A95F1F70000C02FC69550
:1030F000C570802F8570C80F8C2F8370C695C695BC
:1031000093E0000F111F9A95E1F7C80FC8018C2BAF
:10311000EC01ADDE00C068E08C2F00DF90E19A95F5
:10312000F1F75098589A489B31C087E090E0489951
:103130002FC0F801ED5FFE4F6381611559F02091BA
:10314000A1013091A20184819581820F931FBFDE7E
:10315000811501F184DE80E28A95F1F75898509A42
:1031600090E19A95F1F7F801ED5FFE4F60816115EE
:1031700049F02091A1013091A20181819281820FB9
:10318000931FEFDE74DE789481E008C000C0CBCFDF
:10319000019749F4509A589A789480E0DF91CF9142
:1031A0001F910F91089500C0C2CF08950895282F50
:1031B000CB01BA0130919B023430D1F42F702093AF
:1031C000E9002FEF3091E80035FD06C035ED3A9566
:1031D000F1F700002A95B1F72091E80025FF08C01B
:1031E00040E050E0B1D18091E8008E778093E80014
:1031F0000895BC0143E050E082E0D9CFCF93DF9344
:10320000D82FC92F1EDD48E050E06D2F7C2F81E0C4
:10321000CEDF88E0ED2FFC2FAFE6B2E001900D92FB
:103220008A95E1F7DF91CF91089580919A028111FB
:1032300007C011D368D38091E20084608093E200DC
:10324000089510929A020895DFDC81E0EBCC609142
:10325000970281E0611101C080E0C8CC90919B028F
:1032600081E0943009F080E060919702CBCC42E09D
:1032700061EC81E06CD242E261EC82E068D2909134
:103280009B0281E0943009F080E060919702A2CC2B
:1032900080919D02893081F148F4823009F495C013
:1032A000833009F456C0813041F008958A3009F422
:1032B0007FC08B3009F467C0089580919C02813AE9
:1032C00009F046C08091E800877F8093E8008091F4
:1032D000A0029091A102892B59F060E080E090E07B
:1032E00070E080D18091E8008B778093E8000895AA
:1032F00068E08FE692E0F4CF80919C02813241F544
:103300008091A0029091A102029710F58091E800AF
:10331000877F8093E8008091E80082FF15C090913C
:10332000F3008091F200029731F48091F100813036
:1033300011F0863019F48091F10086DC8091E8006C
:103340008B778093E80037C280919B028111E3CF95
:10335000089580919C02813AD9F78091A0029091C2
:10336000A102892BA9F78091E800877F8093E8006C
:103370008091E80080FFFCCF64DC8093F1008091B5
:10338000E8008E77DECF80919C02813209F7809130
:10339000A0029091A102892BD9F68091E800877F45
:1033A0008093E80008D280919E023CDC0C94CA060F
:1033B00080919C02813261F68091E800877F809342
:1033C000E800F9D180919F024DCC80919C02813A16
:1033D00009F0BECF8091E800877F8093E80080915C
:1033E000E80080FFFCCF49DCC8CF84B7877F84BF6B
:1033F0000FB6F894A8958091600088618093600072
:10340000109260000FBE80E890E00FB6F8948093B1
:103410006100909361000FBE03CC1DD274D2E2EE26
:10342000F0E08081846080837894DEC48FE191E055
:10343000EECA80919B02853029F480919B028530F1
:1034400011F0A8CC08957BDC23DC8115B1F38091C9
:103450009902811591F362D00E94CA06EECF0895B9
:103460009A014091A2025091A30200C0FC01D9012F
:103470008F2F992783309105C1F068F48130910531
:1034800009F447C0029761F48BE390E020E133E058
:103490002D933C93089581329105E1F0829749F193
:1034A00080E090E020E030E0F3CFCF019927E130D9
:1034B00059F08230910559F0ECE0F3E0892B81F767
:1034C000849190E09F01E4CFEEEFF2E0F9CFECEDD4
:1034D000F2E0F6CF89E090E022E233E06115710579
:1034E000B9F289E090E02BE333E06130710581F2BD
:1034F000D7CF84E490E02FE833E06115710541F205
:1035000082E390E02DE533E06130710509F4C0CF2E
:10351000C7CF82E190E02BE433E0BACF80E189BDF0
:1035200082E189BD09B400FEFDCF8091D8008F7D76
:103530008093D8008091E00082608093E0008091C9
:10354000E00081FDFCCF0895AF92BF92CF92DF9251
:10355000EF92FF920F931F93CF936C018B017A012F
:1035600049D1C82F811123C0E114F10439F0F701CA
:1035700080819181081B190BC80ED91EA12CB12C7A
:1035800001151105A1F08091E80085FD20C0809112
:10359000E8008E778093E800E114F10499F0F701D8
:1035A000808191818A0D9B1D91838083C5E08C2F42
:1035B000CF911F910F91FF90EF90DF90CF90BF9030
:1035C000AF90089517D18115F1F2C82FF0CFF60111
:1035D00081916F018093F10001501109FFEFAF1A43
:1035E000BF0ACECFFC019B018091A2029091A30261
:1035F0008617970718F0672B61F0C90140E0009724
:1036000071F441110CC08091E80082FF35C080E068
:1036100008958091E8008E778093E800EECF2091A6
:103620009B022115A9F12530A9F12091E80023FD85
:103630002DC02091E80022FDE6CF2091E80020FF78
:10364000DECF3091F3002091F200009719F028307E
:10365000310558F041E02830310509F040E0209173
:10366000E8002E772093E800CACF41914093F10003
:1036700001972F5F3F4FE9CF80919B02811541F069
:10368000853041F08091E80083FFBDCF81E008954F
:1036900082E0089583E00895FC019B018091A202DD
:1036A0009091A3028617970718F0672B61F0C90164
:1036B00040E0009771F441110CC08091E80082FF56
:1036C00036C080E008958091E8008E778093E8000E
:1036D000EECF20919B022115B1F12530B1F120915F
:1036E000E80023FD2EC02091E80022FDE6CF2091C6
:1036F000E80020FFDECF3091F3002091F200009728
:1037000019F02830310558F041E02830310509F032
:1037100040E02091E8002E772093E800CACF449142
:103720004093F100319601972F5F3F4FE8CF809192
:103730009B02811541F0853041F08091E80083FFC4
:10374000BCCF81E0089582E0089583E00895982F2A
:10375000973028F08F708093E90081E0089590936E
:10376000E900242F762F50E0981731F07091EC008B
:103770002091ED005091F00021FD02C09F5FE8CF45
:103780003091EB003E7F3093EB003091ED003D7FB8
:103790003093ED003091EB0031603093EB0070938B
:1037A000EC002093ED005093F0002091EE0027FDF7
:1037B000E5CF80E0089580919C0287FF13C080913F
:1037C000E80082FF06C08091E8008B778093E800D4
:1037D000089580919B028111F2CF089580919B0200
:1037E0008115D9F38091E80080FFF8CF8091E8003F
:1037F0008E77ECCF2091E4003091E50095E6A901A9
:103800002091EC00822F817020FF06C08091E8009B
:1038100080FF06C080E008952091E80022FD1AC0D4
:1038200080919B02811589F0853089F08091EB00B1
:1038300085FD0FC02091E4003091E5004217530749
:10384000F9F29A95E1F684E0089582E0089583E024
:10385000089581E0089567D06ED0E0EEF0E08081B9
:1038600081608083E8EDF0E080818F77808319BCF0
:10387000A7EDB0E08C918E7F8C9380818F7E8083CA
:1038800010929A0208950F931F93CF93DF934BD01A
:1038900052D0C8EDD0E088818F7788838881806896
:1038A000888388818F7D888319BC10929B02109237
:1038B0009702109299021092980200EE10E0F8011F
:1038C00080818B7F808388818160888342E060E093
:1038D00080E03DDFE1EEF0E080818E7F8083E2EEEC
:1038E000F0E0808181608083808188608083F8013E
:1038F00080818E7F8083888180618883DF91CF91F2
:103900001F910F910895E8EDF0E080818F7E808314
:10391000E7EDF0E080818160808384E082BF81E018
:1039200080939A02B0CFE8EDF0E080818E7F8083B3
:103930001092E20008951092DA001092E1000895CA
:103940001F920F920FB60F9211242F933F934F9314
:103950005F936F937F938F939F93AF93BF93EF93F7
:10396000FF938091E10082FF0AC08091E20082FF14
:1039700006C08091E1008B7F8093E10034D280917A
:10398000DA0080FF18C08091D80080FF14C08091B9
:10399000DA008E7F8093DA008091D90080FF8FC09B
:1039A00080E189BD82E189BD09B400FEFDCF81E0DF
:1039B00080939B023ADC8091E10080FF18C08091E7
:1039C000E20080FF14C08091E2008E7F8093E200CD
:1039D0008091E20080618093E2008091D800806253
:1039E0008093D80019BC85E080939B0230DC8091E5
:1039F000E10084FF28C08091E20084FF24C080E1C0
:103A000089BD82E189BD09B400FEFDCF8091D80057
:103A10008F7D8093D8008091E1008F7E8093E100BC
:103A20008091E2008F7E8093E2008091E2008160CD
:103A30008093E20080919702811509F445C084E0EB
:103A400080939B020BDC8091E10083FF27C0809173
:103A5000E20083FF23C08091E100877F8093E10033
:103A600082E080939B02109297028091E1008E7F0A
:103A70008093E1008091E2008E7F8093E20080914C
:103A8000E20080618093E20042E060E080E05FDE7F
:103A90008091F00088608093F000D6DBFF91EF9179
:103AA000BF91AF919F918F917F916F915F914F9156
:103AB0003F912F910F900FBE0F901F90189519BC3A
:103AC00010929B02BEDB77CF8091E30087FF02C09C
:103AD00083E0B6CF81E0B4CF1F920F920FB60F9262
:103AE0001124EF92FF920F931F932F933F934F93C5
:103AF0005F936F937F938F939F93AF93BF93CF9376
:103B0000EF93FF9309EE10E0F8018081C091EC0083
:103B10008F70C795CC27C795C82B108280EFE82EF1
:103B2000F12CF7018081877F808378941FD0F80182
:103B30001082F701808188608083CF70F801C08394
:103B4000FF91EF91CF91BF91AF919F918F917F9115
:103B50006F915F914F913F912F911F910F91FF9026
:103B6000EF900F900FBE0F901F901895AAE2B0E053
:103B7000EBEBFDE177C18CE992E0FC01019620912D
:103B8000F100208322E0843A9207B9F781DB80912B
:103B9000E80083FF37C080919C0290919D029A308B
:103BA00088F5E92FF0E0E952F04E48C1803889F0FD
:103BB000823841F58091A0028F70873018F580938C
:103BC000E9008091EB0085FB882780F91092E900DD
:103BD00006C080919902880F90919802892B90914C
:103BE000E800977F9093E8008093F1001092F10035
:103BF0008091E8008E7722C0811115C080919E02CD
:103C0000813001F18091E80083FF0AC08091E800D3
:103C1000877F8093E8008091EB0080628093EB00C7
:103C2000AA96E4E03BC1823069F780919E0281153B
:103C300081F01092E9008091E800877F8093E8008E
:103C4000BADDE0CF81E0933009F080E08093990203
:103C5000F0CF8091A0028F702FEF280F263090F6C2
:103C60008093E9002091EB0020FFE3CF933031F403
:103C70008091EB0080628093EB00DBCF9091EB00B2
:103C800090619093EB0021E030E0A90102C0440F65
:103C9000551F8A95E2F74093EA001092EA0080915E
:103CA000EB008860E8CF8111ADCF10919E021F77A5
:103CB0008091E3008078812B8093E3008091E8007D
:103CC000877F8093E80077DD8091E80080FFFCCF5C
:103CD0008091E30080688093E30083E0111101C0CC
:103CE00082E080939B028ECF8058823008F08ACF8A
:103CF00080919E0290919F028C3D53E0950791F533
:103D000083E08A838AE289834FB7F894DE011396B1
:103D100020E03EE051E2E32FF0E050935700849121
:103D200020FF03C082958F703F5F8F708A30C0F094
:103D3000895C90E08D939D932F5F243161F74FBF95
:103D40008091E800877F8093E8006AE270E0CE010E
:103D5000019648DC8091E8008B778093E80052CF91
:103D6000805DE7CF6091A0027091A102AE014F5F2C
:103D70005F4F76DB8C01892B09F444CF8091E800FA
:103D8000877F8093E800B80189819A8185DCE2CF42
:103D9000803809F037CF8091E800877F8093E80072
:103DA000809197028093F10023CF81112BCF9091C6
:103DB0009E02923008F026CF8091E800877F8093A2
:103DC000E80090939702F7DC80919702811529F023
:103DD00084E080939B024BDA15CF8091E30087FD4E
:103DE000F7CF81E0F6CF0895CF9380919B028115A4
:103DF00091F08091E900C091EC008F70C795CC27BD
:103E0000C795C82B1092E9008091E80083FDAEDED3
:103E1000CF70C093E900CF9108951DDD10929B02F1
:103E20000895E8EDF0E08081806180838AE18A95E1
:103E3000F1F700C08091D90081700895EE0FFF1F47
:103E40000590F491E02D09942F923F924F925F924A
:103E50006F927F928F929F92AF92BF92CF92DF929A
:103E6000EF92FF920F931F93CF93DF93CDB7DEB7FF
:103E7000CA1BDB0B0FB6F894DEBF0FBECDBF099493
:103E80002A88398848885F846E847D848C849B84EA
:103E9000AA84B984C884DF80EE80FD800C811B81F8
:103EA000AA81B981CE0FD11D0FB6F894DEBF0FBE27
:103EB000CDBFED010895FB01DC0104C08D9101909F
:103EC000801921F441505040C8F7881B990B089580
:103ED000FB01DC0102C001900D9241505040D8F727
:103EE0000895F999FECF92BD81BDF89A992780B5C2
:103EF0000895A8E1B0E042E050E020C0262FF999F3
:103F0000FECF92BD81BDF89A019700B4021639F038
:103F10001FBA20BD0FB6F894FA9AF99A0FBE089509
:103F20000396272FECDFEADF252FE9DF242FE7CFE9
:103F30000196272FE4DFE2CFDC01CB01FC01F999E8
:103F4000FECF06C0F2BDE1BDF89A319600B40D92E5
:103F500041505040B8F70895F894FFCFE31352143E
:103F6000EB13B513B913EF13BD13F313FF13C913F9
:103F70004B14CD130314D11307142C14D5130B14A5
:103F80003314DB1311141914C113F713C513FB13E6
:103F9000DF13151423143C144914AF13E7135914F9
:103FA000E214E814D214DC14EE14F414FA14D61D3E
:103FB000FC1D021EFC1D021E531E741E021EC81E86
:023FC000D51E0C
:103FC20020020100000001000000000000000501C5
:103FD2000000000406000000000000000001002FA5
:103FE20016FE18D618D518F918E200E900EA00B54D
:103FF20000B600B700CD008301CC008A0192019483
:10400200012102230224022502260227022A02B3E8
:1040120000B4006F0070009F01CB019F02A002E27A
:1040220000E900EA00B500B600B700CD008301CC7C
:10403200008A019201940121022302240225022610
:104042000227022A02B300B4006F0070009F01CB66
:10405200019F02A002F4F5F6F73133329497C63489
:0440620035480200DB
:00000001FF
